{
  "_format": "hh-sol-artifact-1",
  "contractName": "StknICO",
  "sourceName": "contracts/ICO.sol",
  "abi": [
    {
      "inputs": [
        {
          "internalType": "address payable",
          "name": "_icoWallet",
          "type": "address"
        },
        {
          "internalType": "address",
          "name": "_token",
          "type": "address"
        }
      ],
      "stateMutability": "nonpayable",
      "type": "constructor"
    },
    {
      "anonymous": false,
      "inputs": [
        {
          "indexed": true,
          "internalType": "address",
          "name": "from",
          "type": "address"
        },
        {
          "indexed": true,
          "internalType": "address",
          "name": "to",
          "type": "address"
        },
        {
          "indexed": false,
          "internalType": "uint256",
          "name": "value",
          "type": "uint256"
        },
        {
          "indexed": false,
          "internalType": "uint256",
          "name": "tokens",
          "type": "uint256"
        }
      ],
      "name": "Invest",
      "type": "event"
    },
    {
      "anonymous": false,
      "inputs": [
        {
          "indexed": false,
          "internalType": "address",
          "name": "to",
          "type": "address"
        },
        {
          "indexed": false,
          "internalType": "uint256",
          "name": "amount",
          "type": "uint256"
        },
        {
          "indexed": false,
          "internalType": "uint256",
          "name": "time",
          "type": "uint256"
        }
      ],
      "name": "TokenBurn",
      "type": "event"
    },
    {
      "stateMutability": "payable",
      "type": "fallback"
    },
    {
      "inputs": [],
      "name": "ICOState",
      "outputs": [
        {
          "internalType": "enum StknICO.State",
          "name": "",
          "type": "uint8"
        }
      ],
      "stateMutability": "view",
      "type": "function"
    },
    {
      "inputs": [],
      "name": "ICOWallet",
      "outputs": [
        {
          "internalType": "address payable",
          "name": "",
          "type": "address"
        }
      ],
      "stateMutability": "view",
      "type": "function"
    },
    {
      "inputs": [],
      "name": "admin",
      "outputs": [
        {
          "internalType": "address",
          "name": "",
          "type": "address"
        }
      ],
      "stateMutability": "view",
      "type": "function"
    },
    {
      "inputs": [],
      "name": "burn",
      "outputs": [
        {
          "internalType": "bool",
          "name": "",
          "type": "bool"
        }
      ],
      "stateMutability": "nonpayable",
      "type": "function"
    },
    {
      "inputs": [
        {
          "internalType": "address",
          "name": "_newAdmin",
          "type": "address"
        }
      ],
      "name": "changeAdmin",
      "outputs": [],
      "stateMutability": "nonpayable",
      "type": "function"
    },
    {
      "inputs": [
        {
          "internalType": "address payable",
          "name": "_newICOWallet",
          "type": "address"
        }
      ],
      "name": "changeICOWallet",
      "outputs": [],
      "stateMutability": "nonpayable",
      "type": "function"
    },
    {
      "inputs": [],
      "name": "endIco",
      "outputs": [],
      "stateMutability": "nonpayable",
      "type": "function"
    },
    {
      "inputs": [],
      "name": "getICOState",
      "outputs": [
        {
          "internalType": "string",
          "name": "",
          "type": "string"
        }
      ],
      "stateMutability": "view",
      "type": "function"
    },
    {
      "inputs": [],
      "name": "getICOTokenBalance",
      "outputs": [
        {
          "internalType": "uint256",
          "name": "",
          "type": "uint256"
        }
      ],
      "stateMutability": "view",
      "type": "function"
    },
    {
      "inputs": [],
      "name": "haltICO",
      "outputs": [],
      "stateMutability": "nonpayable",
      "type": "function"
    },
    {
      "inputs": [],
      "name": "hardCap",
      "outputs": [
        {
          "internalType": "uint256",
          "name": "",
          "type": "uint256"
        }
      ],
      "stateMutability": "view",
      "type": "function"
    },
    {
      "inputs": [],
      "name": "icoEndTime",
      "outputs": [
        {
          "internalType": "uint256",
          "name": "",
          "type": "uint256"
        }
      ],
      "stateMutability": "view",
      "type": "function"
    },
    {
      "inputs": [],
      "name": "icoStartTime",
      "outputs": [
        {
          "internalType": "uint256",
          "name": "",
          "type": "uint256"
        }
      ],
      "stateMutability": "view",
      "type": "function"
    },
    {
      "inputs": [],
      "name": "invest",
      "outputs": [
        {
          "internalType": "bool",
          "name": "",
          "type": "bool"
        }
      ],
      "stateMutability": "payable",
      "type": "function"
    },
    {
      "inputs": [
        {
          "internalType": "address",
          "name": "",
          "type": "address"
        }
      ],
      "name": "investedAmountOf",
      "outputs": [
        {
          "internalType": "uint256",
          "name": "",
          "type": "uint256"
        }
      ],
      "stateMutability": "view",
      "type": "function"
    },
    {
      "inputs": [
        {
          "internalType": "address",
          "name": "_investor",
          "type": "address"
        }
      ],
      "name": "investorBalanceOf",
      "outputs": [
        {
          "internalType": "uint256",
          "name": "",
          "type": "uint256"
        }
      ],
      "stateMutability": "view",
      "type": "function"
    },
    {
      "inputs": [],
      "name": "maxInvestment",
      "outputs": [
        {
          "internalType": "uint256",
          "name": "",
          "type": "uint256"
        }
      ],
      "stateMutability": "view",
      "type": "function"
    },
    {
      "inputs": [],
      "name": "minInvestment",
      "outputs": [
        {
          "internalType": "uint256",
          "name": "",
          "type": "uint256"
        }
      ],
      "stateMutability": "view",
      "type": "function"
    },
    {
      "inputs": [],
      "name": "raisedAmount",
      "outputs": [
        {
          "internalType": "uint256",
          "name": "",
          "type": "uint256"
        }
      ],
      "stateMutability": "view",
      "type": "function"
    },
    {
      "inputs": [],
      "name": "resumeICO",
      "outputs": [],
      "stateMutability": "nonpayable",
      "type": "function"
    },
    {
      "inputs": [],
      "name": "startICO",
      "outputs": [],
      "stateMutability": "nonpayable",
      "type": "function"
    },
    {
      "inputs": [],
      "name": "token",
      "outputs": [
        {
          "internalType": "contract IERC20",
          "name": "",
          "type": "address"
        }
      ],
      "stateMutability": "view",
      "type": "function"
    },
    {
      "inputs": [],
      "name": "tokenPrice",
      "outputs": [
        {
          "internalType": "uint256",
          "name": "",
          "type": "uint256"
        }
      ],
      "stateMutability": "view",
      "type": "function"
    },
    {
      "stateMutability": "payable",
      "type": "receive"
    }
  ],
  "bytecode": "0x608060405266038d7ea4c68000600355671bc16d674ec80000600455662386f26fc100006006556706f05b59d3b200006007553480156200003f57600080fd5b50604051620024a3380380620024a38339818101604052810190620000659190620001de565b336000806101000a81548173ffffffffffffffffffffffffffffffffffffffff021916908373ffffffffffffffffffffffffffffffffffffffff16021790555081600160006101000a81548173ffffffffffffffffffffffffffffffffffffffff021916908373ffffffffffffffffffffffffffffffffffffffff16021790555080600260006101000a81548173ffffffffffffffffffffffffffffffffffffffff021916908373ffffffffffffffffffffffffffffffffffffffff160217905550505062000225565b600080fd5b600073ffffffffffffffffffffffffffffffffffffffff82169050919050565b6000620001618262000134565b9050919050565b620001738162000154565b81146200017f57600080fd5b50565b600081519050620001938162000168565b92915050565b6000620001a68262000134565b9050919050565b620001b88162000199565b8114620001c457600080fd5b50565b600081519050620001d881620001ad565b92915050565b60008060408385031215620001f857620001f76200012f565b5b6000620002088582860162000182565b92505060206200021b85828601620001c7565b9150509250929050565b61226e80620002356000396000f3fe6080604052600436106101425760003560e01c80638ac2c680116100b6578063c59ee1dc1161006f578063c59ee1dc1461041a578063e657807b14610445578063e8b5e51f1461045c578063f851a4401461047a578063fb86a404146104a5578063fc0c546a146104d057610151565b80638ac2c6801461032e5780638f283970146103595780639cbd7da514610382578063a7c3d71b14610399578063ae764df3146103c4578063aeecdc2c146103ef57610151565b806344df8e701161010857806344df8e701461022e5780636127b2ca1461025957806361fba37d146102845780637e1055b6146102c15780637fa8c158146102ec5780637ff9b5961461030357610151565b80622e13161461015b578062f53e6914610186578063129caa18146101af5780631aae3460146101c65780632e659d931461020357610151565b366101515761014f6104fb565b005b6101596104fb565b005b34801561016757600080fd5b506101706109a3565b60405161017d91906115fa565b60405180910390f35b34801561019257600080fd5b506101ad60048036038101906101a89190611678565b6109a9565b005b3480156101bb57600080fd5b506101c4610a7b565b005b3480156101d257600080fd5b506101ed60048036038101906101e891906116e3565b610bac565b6040516101fa91906115fa565b60405180910390f35b34801561020f57600080fd5b50610218610bc4565b60405161022591906117a0565b60405180910390f35b34801561023a57600080fd5b50610243610d6a565b60405161025091906117dd565b60405180910390f35b34801561026557600080fd5b5061026e610fac565b60405161027b91906115fa565b60405180910390f35b34801561029057600080fd5b506102ab60048036038101906102a691906116e3565b61104f565b6040516102b891906115fa565b60405180910390f35b3480156102cd57600080fd5b506102d66110f4565b6040516102e391906115fa565b60405180910390f35b3480156102f857600080fd5b506103016110fa565b005b34801561030f57600080fd5b50610318611249565b60405161032591906115fa565b60405180910390f35b34801561033a57600080fd5b5061034361124f565b60405161035091906115fa565b60405180910390f35b34801561036557600080fd5b50610380600480360381019061037b91906116e3565b611255565b005b34801561038e57600080fd5b50610397611326565b005b3480156103a557600080fd5b506103ae611456565b6040516103bb91906115fa565b60405180910390f35b3480156103d057600080fd5b506103d961145c565b6040516103e69190611807565b60405180910390f35b3480156103fb57600080fd5b50610404611482565b6040516104119190611899565b60405180910390f35b34801561042657600080fd5b5061042f611495565b60405161043c91906115fa565b60405180910390f35b34801561045157600080fd5b5061045a61149b565b005b6104646104fb565b60405161047191906117dd565b60405180910390f35b34801561048657600080fd5b5061048f611591565b60405161049c91906118c3565b60405180910390f35b3480156104b157600080fd5b506104ba6115b5565b6040516104c791906115fa565b60405180910390f35b3480156104dc57600080fd5b506104e56115bb565b6040516104f2919061193d565b60405180910390f35b60006001600381111561051157610510611822565b5b600b60009054906101000a900460ff16600381111561053357610532611822565b5b14610573576040517f08c379a000000000000000000000000000000000000000000000000000000000815260040161056a906119a4565b60405180910390fd5b600654341015801561058757506007543411155b6105c6576040517f08c379a00000000000000000000000000000000000000000000000000000000081526004016105bd90611a10565b60405180910390fd5b60075434600a60003373ffffffffffffffffffffffffffffffffffffffff1673ffffffffffffffffffffffffffffffffffffffff168152602001908152602001600020546106149190611a5f565b1115610655576040517f08c379a000000000000000000000000000000000000000000000000000000000815260040161064c90611b05565b60405180910390fd5b600454346005546106669190611a5f565b11156106a7576040517f08c379a000000000000000000000000000000000000000000000000000000000815260040161069e90611b71565b60405180910390fd5b6009544211156106ec576040517f08c379a00000000000000000000000000000000000000000000000000000000081526004016106e390611c03565b60405180910390fd5b34600560008282546106fe9190611a5f565b9250508190555034600a60003373ffffffffffffffffffffffffffffffffffffffff1673ffffffffffffffffffffffffffffffffffffffff16815260200190815260200160002060008282546107549190611a5f565b925050819055506000600160009054906101000a900473ffffffffffffffffffffffffffffffffffffffff1673ffffffffffffffffffffffffffffffffffffffff16346040516107a390611c54565b60006040518083038185875af1925050503d80600081146107e0576040519150601f19603f3d011682016040523d82523d6000602084013e6107e5565b606091505b5050905080610829576040517f08c379a000000000000000000000000000000000000000000000000000000000815260040161082090611cb5565b60405180910390fd5b6000670de0b6b3a7640000600354346108429190611d04565b61084c9190611d35565b90506000600260009054906101000a900473ffffffffffffffffffffffffffffffffffffffff1673ffffffffffffffffffffffffffffffffffffffff1663a9059cbb33846040518363ffffffff1660e01b81526004016108ad929190611d77565b6020604051808303816000875af11580156108cc573d6000803e3d6000fd5b505050506040513d601f19601f820116820180604052508101906108f09190611dcc565b905080610932576040517f08c379a000000000000000000000000000000000000000000000000000000000815260040161092990611cb5565b60405180910390fd5b3373ffffffffffffffffffffffffffffffffffffffff163073ffffffffffffffffffffffffffffffffffffffff167f2e206bbdd5787cd6d3e97144dec044f9f15dd77a257afd27fa70cad6f03feae33485604051610991929190611df9565b60405180910390a36001935050505090565b60075481565b60008054906101000a900473ffffffffffffffffffffffffffffffffffffffff1673ffffffffffffffffffffffffffffffffffffffff163373ffffffffffffffffffffffffffffffffffffffff1614610a37576040517f08c379a0000000000000000000000000000000000000000000000000000000008152600401610a2e90611e6e565b60405180910390fd5b80600160006101000a81548173ffffffffffffffffffffffffffffffffffffffff021916908373ffffffffffffffffffffffffffffffffffffffff16021790555050565b60008054906101000a900473ffffffffffffffffffffffffffffffffffffffff1673ffffffffffffffffffffffffffffffffffffffff163373ffffffffffffffffffffffffffffffffffffffff1614610b09576040517f08c379a0000000000000000000000000000000000000000000000000000000008152600401610b0090611e6e565b60405180910390fd5b60016003811115610b1d57610b1c611822565b5b600b60009054906101000a900460ff166003811115610b3f57610b3e611822565b5b14610b7f576040517f08c379a0000000000000000000000000000000000000000000000000000000008152600401610b7690611eda565b60405180910390fd5b6003600b60006101000a81548160ff02191690836003811115610ba557610ba4611822565b5b0217905550565b600a6020528060005260406000206000915090505481565b606060006003811115610bda57610bd9611822565b5b600b60009054906101000a900460ff166003811115610bfc57610bfb611822565b5b03610c3e576040518060400160405280600b81526020017f4e6f7420537461727465640000000000000000000000000000000000000000008152509050610d67565b60016003811115610c5257610c51611822565b5b600b60009054906101000a900460ff166003811115610c7457610c73611822565b5b03610cb6576040518060400160405280600781526020017f52756e6e696e67000000000000000000000000000000000000000000000000008152509050610d67565b60026003811115610cca57610cc9611822565b5b600b60009054906101000a900460ff166003811115610cec57610ceb611822565b5b03610d2e576040518060400160405280600381526020017f456e6400000000000000000000000000000000000000000000000000000000008152509050610d67565b6040518060400160405280600681526020017f48616c746564000000000000000000000000000000000000000000000000000081525090505b90565b600060026003811115610d8057610d7f611822565b5b600b60009054906101000a900460ff166003811115610da257610da1611822565b5b14610de2576040517f08c379a0000000000000000000000000000000000000000000000000000000008152600401610dd990611f46565b60405180910390fd5b6000600260009054906101000a900473ffffffffffffffffffffffffffffffffffffffff1673ffffffffffffffffffffffffffffffffffffffff166370a08231306040518263ffffffff1660e01b8152600401610e3f91906118c3565b602060405180830381865afa158015610e5c573d6000803e3d6000fd5b505050506040513d601f19601f82011682018060405250810190610e809190611f92565b90506000600260009054906101000a900473ffffffffffffffffffffffffffffffffffffffff1673ffffffffffffffffffffffffffffffffffffffff1663a9059cbb6000846040518363ffffffff1660e01b8152600401610ee2929190611d77565b6020604051808303816000875af1158015610f01573d6000803e3d6000fd5b505050506040513d601f19601f82011682018060405250810190610f259190611dcc565b905080610f67576040517f08c379a0000000000000000000000000000000000000000000000000000000008152600401610f5e9061200b565b60405180910390fd5b7ffe9e0b0c1e3e9216717d5f66d10bc310b12c366417e150b4b1af9fb9620bca9160008342604051610f9b9392919061202b565b60405180910390a160019250505090565b6000600260009054906101000a900473ffffffffffffffffffffffffffffffffffffffff1673ffffffffffffffffffffffffffffffffffffffff166370a08231306040518263ffffffff1660e01b815260040161100991906118c3565b602060405180830381865afa158015611026573d6000803e3d6000fd5b505050506040513d601f19601f8201168201806040525081019061104a9190611f92565b905090565b6000600260009054906101000a900473ffffffffffffffffffffffffffffffffffffffff1673ffffffffffffffffffffffffffffffffffffffff166370a08231836040518263ffffffff1660e01b81526004016110ac91906118c3565b602060405180830381865afa1580156110c9573d6000803e3d6000fd5b505050506040513d601f19601f820116820180604052508101906110ed9190611f92565b9050919050565b60095481565b60008054906101000a900473ffffffffffffffffffffffffffffffffffffffff1673ffffffffffffffffffffffffffffffffffffffff163373ffffffffffffffffffffffffffffffffffffffff1614611188576040517f08c379a000000000000000000000000000000000000000000000000000000000815260040161117f90611e6e565b60405180910390fd5b6000600381111561119c5761119b611822565b5b600b60009054906101000a900460ff1660038111156111be576111bd611822565b5b146111fe576040517f08c379a00000000000000000000000000000000000000000000000000000000081526004016111f5906120ae565b60405180910390fd5b42600881905550620151806008546112169190611a5f565b6009819055506001600b60006101000a81548160ff0219169083600381111561124257611241611822565b5b0217905550565b60035481565b60065481565b60008054906101000a900473ffffffffffffffffffffffffffffffffffffffff1673ffffffffffffffffffffffffffffffffffffffff163373ffffffffffffffffffffffffffffffffffffffff16146112e3576040517f08c379a00000000000000000000000000000000000000000000000000000000081526004016112da90611e6e565b60405180910390fd5b806000806101000a81548173ffffffffffffffffffffffffffffffffffffffff021916908373ffffffffffffffffffffffffffffffffffffffff16021790555050565b60008054906101000a900473ffffffffffffffffffffffffffffffffffffffff1673ffffffffffffffffffffffffffffffffffffffff163373ffffffffffffffffffffffffffffffffffffffff16146113b4576040517f08c379a00000000000000000000000000000000000000000000000000000000081526004016113ab90611e6e565b60405180910390fd5b6003808111156113c7576113c6611822565b5b600b60009054906101000a900460ff1660038111156113e9576113e8611822565b5b14611429576040517f08c379a00000000000000000000000000000000000000000000000000000000081526004016114209061211a565b60405180910390fd5b6001600b60006101000a81548160ff0219169083600381111561144f5761144e611822565b5b0217905550565b60085481565b600160009054906101000a900473ffffffffffffffffffffffffffffffffffffffff1681565b600b60009054906101000a900460ff1681565b60055481565b600160038111156114af576114ae611822565b5b600b60009054906101000a900460ff1660038111156114d1576114d0611822565b5b14611511576040517f08c379a000000000000000000000000000000000000000000000000000000000815260040161150890612186565b60405180910390fd5b600954421180611525575060045460055410155b611564576040517f08c379a000000000000000000000000000000000000000000000000000000000815260040161155b90612218565b60405180910390fd5b6002600b60006101000a81548160ff0219169083600381111561158a57611589611822565b5b0217905550565b60008054906101000a900473ffffffffffffffffffffffffffffffffffffffff1681565b60045481565b600260009054906101000a900473ffffffffffffffffffffffffffffffffffffffff1681565b6000819050919050565b6115f4816115e1565b82525050565b600060208201905061160f60008301846115eb565b92915050565b600080fd5b600073ffffffffffffffffffffffffffffffffffffffff82169050919050565b60006116458261161a565b9050919050565b6116558161163a565b811461166057600080fd5b50565b6000813590506116728161164c565b92915050565b60006020828403121561168e5761168d611615565b5b600061169c84828501611663565b91505092915050565b60006116b08261161a565b9050919050565b6116c0816116a5565b81146116cb57600080fd5b50565b6000813590506116dd816116b7565b92915050565b6000602082840312156116f9576116f8611615565b5b6000611707848285016116ce565b91505092915050565b600081519050919050565b600082825260208201905092915050565b60005b8381101561174a57808201518184015260208101905061172f565b60008484015250505050565b6000601f19601f8301169050919050565b600061177282611710565b61177c818561171b565b935061178c81856020860161172c565b61179581611756565b840191505092915050565b600060208201905081810360008301526117ba8184611767565b905092915050565b60008115159050919050565b6117d7816117c2565b82525050565b60006020820190506117f260008301846117ce565b92915050565b6118018161163a565b82525050565b600060208201905061181c60008301846117f8565b92915050565b7f4e487b7100000000000000000000000000000000000000000000000000000000600052602160045260246000fd5b6004811061186257611861611822565b5b50565b600081905061187382611851565b919050565b600061188382611865565b9050919050565b61189381611878565b82525050565b60006020820190506118ae600083018461188a565b92915050565b6118bd816116a5565b82525050565b60006020820190506118d860008301846118b4565b92915050565b6000819050919050565b60006119036118fe6118f98461161a565b6118de565b61161a565b9050919050565b6000611915826118e8565b9050919050565b60006119278261190a565b9050919050565b6119378161191c565b82525050565b6000602082019050611952600083018461192e565b92915050565b7f49434f2069736e27742072756e6e696e67000000000000000000000000000000600082015250565b600061198e60118361171b565b915061199982611958565b602082019050919050565b600060208201905081810360008301526119bd81611981565b9050919050565b7f436865636b204d696e20616e64204d617820496e766573746d656e7400000000600082015250565b60006119fa601c8361171b565b9150611a05826119c4565b602082019050919050565b60006020820190508181036000830152611a29816119ed565b9050919050565b7f4e487b7100000000000000000000000000000000000000000000000000000000600052601160045260246000fd5b6000611a6a826115e1565b9150611a75836115e1565b9250828201905080821115611a8d57611a8c611a30565b5b92915050565b7f496e766573746f722072656163686564206d6178696d756d20496e766573746d60008201527f656e7420416d6f756e7400000000000000000000000000000000000000000000602082015250565b6000611aef602a8361171b565b9150611afa82611a93565b604082019050919050565b60006020820190508181036000830152611b1e81611ae2565b9050919050565b7f53656e642077697468696e20686172646361702072616e676500000000000000600082015250565b6000611b5b60198361171b565b9150611b6682611b25565b602082019050919050565b60006020820190508181036000830152611b8a81611b4e565b9050919050565b7f49434f20616c72656164792052656163686564204d6178696d756d2074696d6560008201527f206c696d69740000000000000000000000000000000000000000000000000000602082015250565b6000611bed60268361171b565b9150611bf882611b91565b604082019050919050565b60006020820190508181036000830152611c1c81611be0565b9050919050565b600081905092915050565b50565b6000611c3e600083611c23565b9150611c4982611c2e565b600082019050919050565b6000611c5f82611c31565b9150819050919050565b7f4661696c656420746f20496e7665737400000000000000000000000000000000600082015250565b6000611c9f60108361171b565b9150611caa82611c69565b602082019050919050565b60006020820190508181036000830152611cce81611c92565b9050919050565b7f4e487b7100000000000000000000000000000000000000000000000000000000600052601260045260246000fd5b6000611d0f826115e1565b9150611d1a836115e1565b925082611d2a57611d29611cd5565b5b828204905092915050565b6000611d40826115e1565b9150611d4b836115e1565b9250828202611d59816115e1565b91508282048414831517611d7057611d6f611a30565b5b5092915050565b6000604082019050611d8c60008301856118b4565b611d9960208301846115eb565b9392505050565b611da9816117c2565b8114611db457600080fd5b50565b600081519050611dc681611da0565b92915050565b600060208284031215611de257611de1611615565b5b6000611df084828501611db7565b91505092915050565b6000604082019050611e0e60008301856115eb565b611e1b60208301846115eb565b9392505050565b7f41646d696e204f6e6c792066756e6374696f6e00000000000000000000000000600082015250565b6000611e5860138361171b565b9150611e6382611e22565b602082019050919050565b60006020820190508181036000830152611e8781611e4b565b9050919050565b7f49434f2069736e27742072756e6e696e67207965740000000000000000000000600082015250565b6000611ec460158361171b565b9150611ecf82611e8e565b602082019050919050565b60006020820190508181036000830152611ef381611eb7565b9050919050565b7f49434f2069736e2774206f766572207965740000000000000000000000000000600082015250565b6000611f3060128361171b565b9150611f3b82611efa565b602082019050919050565b60006020820190508181036000830152611f5f81611f23565b9050919050565b611f6f816115e1565b8114611f7a57600080fd5b50565b600081519050611f8c81611f66565b92915050565b600060208284031215611fa857611fa7611615565b5b6000611fb684828501611f7d565b91505092915050565b7f4661696c656420746f206275726e2072656d61696e696e6720746f6b656e7300600082015250565b6000611ff5601f8361171b565b915061200082611fbf565b602082019050919050565b6000602082019050818103600083015261202481611fe8565b9050919050565b600060608201905061204060008301866118b4565b61204d60208301856115eb565b61205a60408301846115eb565b949350505050565b7f49434f2069736e277420696e206265666f726520737461746500000000000000600082015250565b600061209860198361171b565b91506120a382612062565b602082019050919050565b600060208201905081810360008301526120c78161208b565b9050919050565b7f49434f2053746174652069736e27742068616c74656420796574000000000000600082015250565b6000612104601a8361171b565b915061210f826120ce565b602082019050919050565b60006020820190508181036000830152612133816120f7565b9050919050565b7f49434f2053686f756c6420626520696e2052756e6e696e672053746174650000600082015250565b6000612170601e8361171b565b915061217b8261213a565b602082019050919050565b6000602082019050818103600083015261219f81612163565b9050919050565b7f49434f2048617264636170206f722074696d656c696d6974206e6f742072656160008201527f6368656400000000000000000000000000000000000000000000000000000000602082015250565b600061220260248361171b565b915061220d826121a6565b604082019050919050565b60006020820190508181036000830152612231816121f5565b905091905056fea26469706673582212207196a35dfcdba80d6eda0ec3b7f2c87a1dcc37366764f62f0df8fb899696d9ce64736f6c63430008110033",
  "linkReferences": {},
  "deployedLinkReferences": {}
}